:10000000CAC00000E3C00000E1C00000DFC0000083
:10001000DDC00000DBC00000D9C00000D7C0000078
:10002000D5C00000D3C00000D1C00000EBC3000069
:10003000CDC00000CBC00000C9C00000C7C0000098
:10004000C5C00000C3C00000C1C00000DCC000008B
:10005000BDC00000BBC00000B9C00000B7C00000B8
:10006000B5C00000B3C00000B1C00000AFC00000C8
:10007000ADC00000220348007900700065007200E6
:100080004A0061006D0065007300200041007500AA
:10009000640069006F00000020034A0061006D00E9
:1000A0006500730020004D00630044006F006E0087
:1000B0006E0065006C006C00000004030904090276
:1000C000C600030100C03209040000000101000065
:1000D0000A2401000134000201020C240201010182
:1000E0000202030000000924030202040101000CC3
:1000F000240203010204010000000009240304019A
:1001000001000300090401000001020000090401CC
:10011000010101020000072401010101001724026E
:100120000102021005401F00112B0022560044ACB2
:100130000080BB0009050105000101000007250141
:10014000010000000904020000010200000904028D
:10015000010101020000072401040101001724022B
:100160000102021005401F00112B0022560044AC72
:100170000080BB0009058205000101000007250180
:10018000010000001201000200000008EB034620FD
:1001900002000102000111241FBECFEFD2E0DEBF3A
:1001A000CDBF11E0A0E0B1E0ECE7FFE002C00590B8
:1001B0000D92AE31B107D9F721E0AEE1B1E001C057
:1001C0001D92AB32B207E1F71AD0D6C619CF84B769
:1001D000877F84BF0FB6F894A895809160008861EE
:1001E00080936000109260000FBE90E080E80FB630
:1001F000F89480936100909361000FBEF4C2E7DF32
:10020000789400D5FECF1F920F920FB60F92112453
:100210002F933F938F939F938091E9008F709091DC
:10022000EC00292F217090FD20E8282B80912201DD
:100230008430A9F580911D01882389F180911801EE
:100240008F708093E9008091E80082FF28C0809140
:10025000F1003091F1008091F200811105C0809190
:10026000E8008B778093E8008091F1008091F100A5
:100270009091F200911105C09091E8009B779093C6
:10028000E800082E000C990B830F911D37FD9A95FD
:100290009595879580589093890080938800822F48
:1002A0008F708093E9009F918F913F912F910F90D4
:1002B0000FBE0F901F901895CF93C2E0C0936E00B1
:1002C0002091000130910101409102015091030100
:1002D00060E874E88EE190E02DD6215027BDC4BDC2
:1002E000C5BD3E9A81EF8093800089E080938100B4
:1002F000CF91089515BC109281003E980895CF9338
:1003000081E191E099D4C82F84E091E095D48823CD
:1003100011F0C11102C090E201C090E18BB1909543
:10032000806389238BB9CF91089581E191E09CD4BA
:1003300084E091E099C4EF92FF920F931F93F7012D
:1003400080911801481306C0213021F46130F1F08A
:10035000613851F080910601481339C02130B9F558
:100360006130A1F0613899F50115110591F183E033
:1003700090E0D8018D939C938091000190910101B0
:100380002091020122839183808323C0012B09F1F4
:1003900082812181422F50E060E070E0762F652F4E
:1003A000542F4427682B80819A01AB01282B20937E
:1003B000000130930101409302015093030160E872
:1003C00074E88EE190E0B6D5215027BD02C080E0F0
:1003D00001C081E01F910F91FF90EF90089580E0A0
:1003E0000895292F33272230310559F02330310564
:1003F00069F021303105F9F482E190E024E831E040
:100400001EC086EC90E02EEB30E019C099278130B9
:10041000910541F08230910541F0892B61F4EAEBBE
:10042000F0E005C0E8E9F0E002C0E4E7F0E0849124
:1004300090E09F0104C080E090E020E030E0FA010D
:100440003183208308952091290130912A012617B4
:10045000370748F06115710539F42091E8002E77CF
:100460002093E80001C0B90140E06115710591F1E8
:1004700020912201222309F440C0253009F43FC015
:100480002091E80023FD3DC02091E80022FD2FC00F
:100490002091E80020FFE9CF2091F20030E0FC013C
:1004A000CF016115710559F02830310540F4819173
:1004B0008093F100615071092F5F3F4FF1CF41E010
:1004C0002830310509F040E02091E8002E77209394
:1004D000E800CBCF4111CCCF0AC080912201882304
:1004E00061F0853061F08091E80083FD0AC0809161
:1004F000E80082FFF2CF80E0089582E0089583E073
:10050000089581E008956115710529F42091E800AE
:100510002B772093E800FC016115710521F1809192
:100520002201882341F1853041F18091E80083FD6B
:1005300020C08091E80082FFEFCF8091F2008823F5
:1005400031F08091F100819361507109B1F7809190
:10055000E8008B778093E800DFCF80912201882329
:1005600051F0853051F08091E80080FFF6CF80E0B7
:10057000089581E0089582E0089583E00895209130
:10058000290130912A012617370748F061157105B6
:1005900039F42091E8002E772093E80001C0B901DA
:1005A000FC0120E06115710579F180912201882319
:1005B00009F43DC0853009F43CC08091E80083FD1A
:1005C0003AC08091E80082FD2CC08091E80080FF55
:1005D000E9CF8091F20090E06115710559F0883003
:1005E000910540F424912093F100319661507109F6
:1005F0000196F2CF21E0089709F020E08091E80011
:100600008E778093E800CECF2111CFCF0AC08091A2
:100610002201882361F0853061F08091E80083FD3C
:100620000AC08091E80082FFF2CF80E0089582E066
:10063000089583E0089581E00895982F953058F546
:100640009093E900981739F07091EC002091ED003B
:100650005091F00003C0242F762F50E021FF19C0E5
:100660003091EB003E7F3093EB003091ED003D7F09
:100670003093ED003091EB0031603093EB007093DC
:10068000EC002093ED005093F0002091EE0027FF46
:1006900007C09F5FD3CF8F708093E90081E00895FA
:1006A00080E00895EF92FF920F931F93CF93DF9313
:1006B000E62EEC018C010C5F1F4FF12CFE1499F11A
:1006C0009881992359F1F801208169817A813197C4
:1006D0003081892F8F70853010F080E025C0223066
:1006E00010F442E001C046E0E8E0F0E020E0E61768
:1006F000F70720F42F5FEE0FFF1FF9CF2295207F21
:10070000422B232F2295220F220F207C991F9927FD
:10071000991F622F692B91DF8823F9F2F3942596B4
:100720000B5F1F4FCBCF81E0DF91CF911F910F91D6
:10073000FF90EF9008958091230187FF11C0809171
:10074000E80082FD05C0809122018111F8CF11C01F
:100750008091E8008B770BC080912201882349F0BB
:100760008091E80080FFF8CF8091E8008E77809339
:10077000E800089541D043D08091D8008F778093CE
:10078000D8008091D80080688093D8008091D800EC
:100790008F7D8093D80084E089BD86E089BD09B44F
:1007A00000FEFDCF1092220110921E011092200136
:1007B00010921F0142E060E080E03FDF8091E100A5
:1007C0008E7F8093E1008091E20081608093E2005F
:1007D0008091E20088608093E2008091E0008E7F4B
:1007E0008093E0000895E3E6F0E080818E7F8083CF
:1007F00081E080932101BECF1092E2000895109213
:10080000E10008951F920F920FB60F9211242F93BB
:100810003F934F935F936F937F938F939F93AF9388
:10082000BF93EF93FF938091E10082FF0AC0809114
:10083000E20082FF06C08091E1008B7F8093E1009F
:10084000E0D18091E10080FF17C08091E20080FF3D
:1008500013C08091E2008E7F8093E2008091E200DD
:1008600080618093E2008091D80080628093D800FC
:1008700019BC109222013EDD8091E10084FF2FC05F
:100880008091E20084FF2BC084E089BD86E089BDB1
:1008900009B400FEFDCF8091D8008F7D8093D800F1
:1008A0008091E1008F7E8093E1008091E2008F7E55
:1008B0008093E2008091E20081608093E200809169
:1008C0001E01882311F084E007C08091E30087FDBA
:1008D00002C081E001C083E080932201EDDC8091C1
:1008E000E10083FF22C08091E20083FF1EC080915F
:1008F000E100877F8093E10082E0809322011092E3
:100900001E018091E1008E7F8093E1008091E200E2
:100910008E7F8093E2008091E20080618093E2000C
:1009200042E060E080E089DE6CD1FF91EF91BF9101
:10093000AF919F918F917F916F915F914F913F9177
:100940002F910F900FBE0F901F9018951F93CF936C
:10095000DF93CDB7DEB7AA970FB6F894DEBF0FBE10
:10096000CDBFE3E2F1E088E08E0F9091F10091932A
:100970008E13FBCFDADC8091E80083FF2AC18091DF
:10098000230190912401953009F483C030F4913013
:10099000A9F168F0933091F11CC1983009F4EEC0D0
:1009A000993009F4FAC0963009F013C194C0803828
:1009B00021F0823809F00DC108C080911F0190918B
:1009C0002001992389F082600FC0809127018F70E8
:1009D000853008F0FEC08093E9008091EB0085FB34
:1009E000882780F91092E9009091E800977F909312
:1009F000E8008093F1001092F100CBC0282F2D7FEA
:100A000009F0E7C0882319F0823061F0E2C08091DC
:100A10002501813009F0DDC0933009F080E080933A
:100A200020012EC08091250181112AC080912701CB
:100A30008F702FEF280F243008F0CBC08093E9008F
:100A40002091EB0020FF1CC0933021F48091EB003B
:100A5000806214C09091EB0090619093EB0021E0D4
:100A600030E0A90102C0440F551F8A95E2F7409378
:100A7000EA001092EA008091EB0088608093EB001E
:100A80001092E9008091E800877F8093E80053DEB0
:100A9000A0C081119EC0109125011F778091E300B5
:100AA0008078812B8093E3008091E800877F80939A
:100AB000E80041DE8091E80080FFFCCF8091E300F8
:100AC00080688093E300111102C082E001C083E0DE
:100AD000809322017EC08058823008F07AC08091D5
:100AE0002501909126018C3D53E0950771F583E037
:100AF0008A838AE289834FB7F894DE01139620E057
:100B00003EE051E2E32FF0E050935700E49120FFE4
:100B100003C0E295EF703F5FEF708E2F90E0EA30F8
:100B200010F0C79601C0C0968D939D932F5F24311E
:100B300049F74FBF8091E800877F8093E8006AE221
:100B400070E0CE0101967FDC13C0609127017091A7
:100B50002801AE014F5F5F4F44DCBC01892BC9F116
:100B60009091E800977F9093E80089819A8107DD52
:100B70008091E8008B778093E8002BC0803849F59E
:100B80008091E800877F8093E80080911E01809328
:100B9000F1008091E8008E7778CF81111AC0909192
:100BA00025019230B0F48091E800877F8093E800BF
:100BB00090931E01C0DD80911E01811106C08091BD
:100BC000E30087FD02C081E001C084E08093220140
:100BD00096DB8091E80083FF0AC08091E800877F60
:100BE0008093E8008091EB0080628093EB00AA96EE
:100BF0000FB6F894DEBF0FBECDBFDF91CF911F912E
:100C000008950895CF9380912201882399F0C0918F
:100C1000E900CF709091EC00892F817090FD80E801
:100C2000C82B1092E9008091E80083FD8FDECF7021
:100C3000C093E900CF910895CF93DF93EC011C8618
:100C400081E08D838A8761E0CE0102962BDD8823C7
:100C500031F061E0CE010796DF91CF9123CD80E0A6
:100C6000DF91CF91089508954F925F926F927F9296
:100C70008F929F92AF92BF92CF92DF92EF92FF92AC
:100C80000F931F93CF93DF9300D0CDB7DEB76C01E6
:100C90008DB69EB68091E80083FF34C19091230108
:100CA000892F8F71813041F420912701F601308125
:100CB000231769F0318109C0823049F4209127015E
:100CC000F6013281231719F0378123131BC1B0902D
:100CD0002401FBE0BF1699F0FB1528F09FEF9B0D58
:100CE000943060F10FC121E8B21608F40BC134E86A
:100CF0003B1508F0AAC06FEFB616A9F003C19130FA
:100D000009F000C18091E800877F8093E80013DD3F
:100D10009091250181E0911101C080E0F601848766
:100D2000C601A1DFEFC09152923008F0EBC0809174
:100D3000E800877F8093E800FEDCE4C0823009F0A1
:100D40003DC0A090270150902601E12CF12C00E03D
:100D500010E0252D4A2D6B2DC601EDDA882309F40C
:100D6000D1C06DB67EB68091290190912A019A83F7
:100D700089832DB73EB7281B390B0FB6F8943EBFB9
:100D80000FBE2DBF6DB77EB76F5F7F4F7B01809128
:100D9000E800877F8093E80069817A81C701B3DB2F
:100DA0009091E8009E779093E8008E010F5F1F4FAF
:100DB000252D4A2D6B2DC601BEDA9FC0813009F06A
:100DC000A1C0A09028016090250170902601E12C1F
:100DD000F12C00E010E093014A2D6B2DC601FFDAE3
:100DE000882309F48FC04DB65EB680912901909199
:100DF0002A019A838983EDB7FEB7E81BF90B0FB67A
:100E0000F894FEBF0FBEEDBF2DB73EB72F5F3F4F2B
:100E100079018091E800877F8093E80069817A8179
:100E2000C90171DB9091E8009E779093E8008E01F4
:100E30000F5F1F4F93014A2D6B2DC601D0DA0FB6FD
:100E4000F8945EBE0FBE4DBE5DC0823009F56DB632
:100E50007EB6409127012091260180912901909131
:100E60002A019A8389836DB77EB7681B790B0FB609
:100E7000F8947EBF0FBE6DBF8DB79EB701962C0153
:100E80007C018E010F5F1F4F6B2DC60154DA25C008
:100E90008130C1F56DB67EB64091280120912501C3
:100EA000309126018091290190912A019A838983AA
:100EB000EDB7FEB7E81BF90B0FB6F894FEBF0FBEF7
:100EC000EDBF6DB77EB76F5F7F4F2B017B018E014A
:100ED0000F5F1F4F6B2DC60182DA882371F080915E
:100EE000E800877F8093E80069817A81C201ABDAEC
:100EF0008091E8008B778093E8000FB6F8947EBE6F
:100F00000FBE6DBE0FB6F8949EBE0FBE8DBE0F9085
:100F10000F90DF91CF911F910F91FF90EF90DF9095
:100F2000CF90BF90AF909F908F907F906F905F9089
:100F30004F900895A1E21A2EAA1BBB1BFD010DC004
:100F4000AA1FBB1FEE1FFF1FA217B307E407F50779
:100F500020F0A21BB30BE40BF50B661F771F881F55
:100F6000991F1A9469F760957095809590959B01EB
:0C0F7000AC01BD01CF010895F894FFCF43
:100F7C0080BB0000000282000100020000000000A3
:0E0F8C00000001000000000001000100020052
:00000001FF
